:0E0000000C943C000C9400000C9400000C9436
:10000E0000000C9400000C9400000C9400000C9462
:10001E0000000C9400000C9400000C9400000C9452
:10002E0082010C9400000C9400000C9400000C94BF
:10003E0000000C9400000C9400000C9400000C9432
:10004E0000000C940000000001002D4E414E0049AE
:10005E004E46000080C002000C00540001006002F9
:10006E0056000200640262000000F894EE27ECBB1A
:10007E00F1E0FBBFEBBFE5BF8DE0A2E0BB27ED9348
:10008E008A95E9F780E098E0A0E6ED930197E9F70D
:10009E00E4E6F0E085919591009761F0A591B59118
:1000AE0005901590BF01F00105900D920197E1F7B3
:1000BE00FB01F0CFEFE5EDBFE8E0EEBFC0E6D2E02A
:1000CE000C947A00AA93E881E06CE7B98BE18A95EB
:1000DE00F1F7369A349BFECF349AE4B1F5B10E9413
:1000EE00BB030C946403A497A0E10E943203EAE0E0
:1000FE00F0E03F01E3E0E4BBE1E0E1BBE0E0EABBBE
:10010E00E0ECE7B9E5E8E6B9E3E0E3BFE6E0E2BF3D
:10011E00E1E0E9BF7894A0E0D5DF0E94C0030E9421
:10012E00C303EAE0F7ED63E270E40E944105DF01EC
:10013E00CB01E0E0F0E060E874E40E948F050E94DD
:10014E00C003E1E0EA93A0E00E94C002F4010E9425
:10015E00C603E0E0EA93A1E00E94C002F2010E9411
:10016E00C6030E94D30350F40E94DB0321F00E94C9
:10017E00C30393D003C00E94C30311D00E94D303C4
:10018E0009F008F40AC00E94DB0321F00E94C303A9
:10019E00A7D003C00E94C30302D0BDCFFFCF0E94E1
:1001AE0026060E943D060E94E703E0E0F0E060EACA
:1001BE0070E40E94EA040E9480048F010E94E7030B
:1001CE00E0E0F0E068EC72E40E948F050E9480048B
:1001DE009F01A89AD8010E944104A898D9010E94B3
:1001EE0041040E9442067AC00E9426060E943D06E5
:1001FE00F6010E94E7030E94EC030E94F1030E94A5
:10020E007E049F012B30E0E03E0784F0A885B9857F
:10021E008A859B850E94F603A885B9858A859B856C
:10022E000E94F1040E9480048F0101C08901A99AE5
:10023E00D8010E944104A998D8010E944104C00E21
:10024E00D11E0E9442062C9608950E9426061A93ED
:10025E000A9300240C140D04E4F4EAE0F0E0EC152B
:10026E00FD0564F40E94FD030E94F6030E94FD0347
:10027E000E94F1040E9480048F0101C08601909AB1
:10028E00D8010E9441049098D8010E944104C01ADE
:10029E00D10A19810881269608950E942606249770
:1002AE00E0E0E883E983EAEFEA83E4E4EB830E948B
:1002BE000204D6010E9401060E942D060E94D4055A
:1002CE0020F00E94E7036BDF09C0EC81FD816E8197
:1002DE007F810E9421060E94E70386DF28960895FB
:1002EE000E942606A89B02C0A89803C00E94C303C2
:1002FE00ACDF0C94AC03EA93FA93EFB7EA93E6E023
:10030E00E2BFE4EFF1E0EA15FB0511F5AA24BB24E8
:10031E00EBE3F0E0E815F905B9F488249924E41527
:10032E00F50571F444245524E7E1F0E0E615F705F0
:10033E0019F46624772403C0F30131963F0103C0FC
:10034E00F20131962F0103C0F40131964F0103C023
:10035E00F50131965F01E991EFBFF991E991189599
:10036E00BA93AA932497E0E0E883E983EA83EFE364
:10037E00EB831A930A93EB85FC85EF3FAFEFFA07F9
:10038E0039F40E940504A8E5B0E00E94AE03ADC0AA
:10039E00EF3FAFE7FA0739F40E940504A9E5B0E094
:1003AE000E94AE03A2C0AC85AA2362F4E985FA8549
:1003BE006B857C850E944B040E940A040E940F04E8
:1003CE00EDE2EC93A885A73010F0E6E0E8871885FB
:1003DE00E12F1150E03029F00E9416040E941E04F5
:1003EE00F7CF0E9423040E94F1040E940A0410E039
:1003FE00E0E0F0E060E87FE30E941E040E94230428
:10040E000E94D40588F00E94FD030E942C040E94D5
:10041E001E041F5F173238F00E940504ADE5B0E0F0
:10042E000E94AE0362C0EACF103029F40E940F047E
:10043E00E0E3EC932DC0E12F1150E03049F10E9422
:10044E001604A0E0B0E080E09FE30E94F104DF011B
:10045E00CB010E9497030E941E040E9423040E9457
:10046E008F050E947E040E2F0E940F04E02FE05D88
:10047E00EC93E02FF0E00E94FD030E94EC030E943B
:10048E0041050E9433040E94F1030E940A04D3CF57
:10049E00E885E03031F10E940F04EEE2EC93E8853E
:1004AE00E150E887EF5FE9F00E9433040E942C04CC
:1004BE000E940A04E985FA856B857C850E947E047C
:1004CE000E2F0E940F04E02FE05DEC93E02FF0E082
:1004DE000E9433040E94EC030E94F1030E940A045E
:1004EE00DECFAE81BF81E0E0EC93198108812D96BD
:1004FE000895FFE0FA95F1F70895A7B3AF70A7BB83
:10050E00C19AC098F6DFC29AF4DFA6B3C298F1DFA3
:10051E00C29AEFDFC298A7FDF5CF0895A07FAB2B4F
:10052E00A8BBC29A0E948002C2980E9480020895BF
:10053E00AA93C198A7B3A76FA7BBB8B3BF70A88182
:10054E00EDDFA881A295EADFC19A0C946403C29AEA
:10055E000E948002E6B3C2980E948002E07F089556
:10056E000E948002F4DFAE2FF2DFC198E295EA2BF3
:10057E000895AA930E948402E881F0E0EC59FD4FA1
:10058E00E081A981AE0F0E949F02E981E09368028B
:10059E00E881E0936902229608950E948402A2E007
:1005AE000E949F020E948402ACE00E949F020E9461
:1005BE008402A1E00E949F02E0E0E0936902E093D2
:1005CE0068020895AA93EF93FF93A8816894AA30C6
:1005DE0039F0E894E0916A02A0916802AE1758F0E3
:1005EE00E0916902EF5FE0936902E0E0EA93A09187
:1005FE006902BFDF56F0E0916802EF5FE093680298
:10060E007CDFC09AA8810E949F02FF91EF910C940B
:10061E006403BA93AA931A93A981BA81ED91A9831F
:10062E00BA831E2FE03019F0A12FCCDFF5CF188141
:10063E0023960895AA27BB271197F1F70895AA9339
:10064E00C198A7B3A76FA7BBB8B3BF70A8810E940C
:10065E009502C19A32C0AA93C298C098E881E093DD
:10066E006A02E058E0936602E881E054E093670284
:10067E000E9438040E9438040E943804DBDFA0E296
:10068E00DEDFD8DFA8E20E943D04A4E00E943D0414
:10069E00A5E80E943D04A7B3AF70A7BBC19A0E9404
:1006AE00B702E53011F0E0E008C00E948402A6E037
:1006BE000E949F020E94D402E1E0219608950E94BA
:1006CE0026067B816A81F981E88177FB770F67FDCA
:1006DE007160972F9E5781F078F0983190F4AA2789
:1006EE00BB27882708948795B795A7959A95D1F734
:1006FE00EA23FB23682305C0E8947727EE27FF271C
:10070E0066276F77769508F4606877F9A991B991A5
:10071E0089919991EA17FB076807790797FB089566
:10072E000E9426060E94C3030E9466030E94C00315
:10073E0019F40E94020409C0E6F70E940204A0E028
:10074E00B0E080E89FE30E94EA0424960895BA93ED
:10075E00AA93E991F991A991B991CD0105900D92C4
:10076E000020E1F7FC010895662777270E94B70461
:10077E0008950E941C0608950E9417060895F4DF3E
:10078E000E942106E2E0EA93DE0119960E94B7016B
:10079E00DE0114960C941003EFDFE6E6F6E666EE45
:1007AE007EE30E94D4050895D301E7E0F0E00E94B5
:1007BE000C060E2EE2E1F0E00E940606E0210895FE
:1007CE00AC81BD818E819F8108950E94FC050E949F
:1007DE00B70408950E9430060E94EA040895E0E0EE
:1007EE00F0E060E271E40E94EA040895AA81BB8100
:1007FE008C819D8108950E9412060895EE81FF81DD
:10080E00FA93EA930895E987FA876B877C870895B0
:10081E00AE81BF811196AE83BF8311970895E6DF37
:10082E00EDECFCEC6CEC7DE30E9441050895EA834F
:10083E00FB836C837D830895EA81FB816C817D81CE
:10084E00A985BA858B859C850895E0E0F0E060E28D
:10085E0071E40E9441050895A985BA858B859C8512
:10086E0008950E942103A0E30C9426030E949F0288
:10087E000C942103109639F080ED97E00197F1F773
:10088E00A8951197C9F7089530976040704009F008
:10089E0070580895552342F4503811F4E0FF04C007
:1008AE003196691F791F6BF050E8572711F45F934B
:1008BE00CFC05F3F31F0660F000C57956795752FCF
:1008CE0008955F9300200AF0CFC0C8C050E8192EDB
:1008DE001522880F991F9527550F879550E8072EDB
:1008EE000522660F771F7527550F67950895689433
:1008FE0001C0E8945F93F2DF703818F07F3F08F480
:10090E00A7C056E1571BAAF4519558300EF4593032
:10091E0030F0EFEFFFEF6FEF7FE777F91AC0772731
:10092E005523B9F0EE0FFF1F661F771F5A95D1F7AB
:10093E0010C07727583028F0EF2FF62F672F58501A
:10094E00F9CF552331F076956795F795E7955A953A
:10095E00D1F700200AF441D15F910895689401C047
:10096E00E894309760407040B1F0002426F0772371
:10097E0012F4009432D1172E7EE1112032F07A95C6
:10098E00EE0FFF1F661F111CF9CFEF2FF62F612DF3
:10099E005F938ADF5F9108954F93AF01FD01DA01F6
:1009AE00AB01BC01CA01402D012C142E4F910895AC
:1009BE00EA0FFB1F681F0895E095F0956095EF5FB5
:1009CE00FF4F6F4F08955F9381DF903871F150E8BC
:1009DE00152604C05F937ADF903839F1703821F113
:1009EE00572F591B2BF112F4D7DFFACF583118F0CD
:1009FE00AA27BB278827583028F0AB2FB82F882777
:100A0E005850F9CF552329F08695B795A7955A9545
:100A1E00D9F7502D512572F0CBDF38F46795F79545
:100A2E00E795739513F420C0B7DF3EDF5F9108950D
:100A3E00D8F7FBCFEA1BFB0B680B51F010F40094B8
:100A4E00BBDF662392F3EE0FFF1F661F7A95CBF77F
:100A5E00EE27FF27662777275F910895EFEFFFEFC9
:100A6E006FE77FEF5F910895EFEFFFEF6FE77FE79F
:100A7E005F9108955F932ADF703851F3903841F3F8
:100A8E0001240894791F23F41CF300203AF3ECCFD1
:100A9E000F921F932F933F934F931127222799273E
:100AAE00689FA0018F9F302D410D591F6B9F300DF8
:100ABE00411D591F8E9F27D0BF9F25D06A9F23D0DF
:100ACE00BE9F1DD0AF9F1BD0AE9F110D291F391F8A
:100ADE00491F591FE32FF42F652F522F4F913F912E
:100AEE002F911F910F9066232AF0550FEE1FFF1FB7
:100AFE00661F02C073954BF2CDDE5F910895100D07
:100B0E00211D391F02C0200D311D491F591F089587
:100B1E005F93DCDE703821F411200AF49FCFA4CF4E
:100B2E00903809F495CF01240894970B1BF4D4F355
:100B3E000020F3CF792F1F932F933F934F931124C0
:100B4E001127222733274427552790E2AE17BF07D8
:100B5E008607410730F0AE1BBF0B860B410B089486
:100B6E0001C08894551F221F331F111CAA1FBB1FC3
:100B7E00881F441F9A9551F7F901612D4F913F91AE
:100B8E002F911F91662332F0550FEE1FFF1F661F28
:100B9E007A9543F27FDE5F91089599239AF0772339
:100BAE0042F0971748F029F4AE17BF07860720F0DA
:100BBE0031F0989488940895989408940895189410
:100BCE00889408957723C2F7971798F3A9F7EA1731
:100BDE00FB07680788F399F3ECCFF0956095709555
:100BEE00E195FF4F6F4F7F4F08956F2F660F660B86
:100BFE00762F08958B2F880F880B982F0895AE1798
:100C0E00BF07E1E008F0EE270895EA17FB07E1E0E1
:100C1E0008F0EE270895E881F9816A817B810895B5
:100C2E00A881B9818A819B810895E883F9836A83BB
:100C3E007B8308957A936A93FA93EA9308959A932D
:100C4E008A93BA93AA930895689401C0E89401D048
:100C5E0088DE182E862F612D192E972F712D1B2EA3
:100C6E00BF2FF12D1A2EAE2FE12D08953A932A9310
:100C7E001A930A9308953B812A8119810881089558
:00000001FF
